:100000000C9463000C948B000C948B000C942A05C8
:100010000C9480040C9434050C948B000C948B008D
:100020000C948B000C948B000C948B000C948B0024
:100030000C948B000C948B000C948B000C948B0014
:100040000C9436040C948B000C948B000C948B0055
:100050000C948B000C948B000C948B000C948B00F4
:100060000C948B000C948B000000000024002700EF
:100070002A0000000000250028002B0000000000DE
:1000800023002600290004040404040404040202DA
:100090000202020203030303030301020408102007
:1000A0004080010204081020010204081020000012
:1000B0000008000201000003040700000000000027
:1000C00000005606940611241FBECFEFD8E0DEBF15
:1000D000CDBF11E0A0E0B1E0EEE6F1E102C0059095
:1000E0000D92A432B107D9F721E0A4E2B1E001C03A
:1000F0001D92AC35B207E1F710E0C2E6D0E004C0D3
:100100002197FE010E94D606C136D107C9F70E9489
:100110003E050C94AA080C940000833081F028F46A
:10012000813099F08230A1F008958730A9F08830AD
:10013000B9F08430D1F4809180008F7D03C080912C
:1001400080008F7780938000089584B58F7702C0F8
:1001500084B58F7D84BD08958091B0008F7703C0F2
:100160008091B0008F7D8093B0000895CF93DF938E
:10017000282F30E0F901E255FF4F8491F901E6564E
:10018000FF4FD491F901EA57FF4FC491CC2391F06E
:1001900081110E948D00EC2FF0E0EE0FFF1FE4585C
:1001A000FF4FA591B491EC91ED2381E090E021F413
:1001B00080E002C080E090E0DF91CF9108951F932E
:1001C000CF93DF93282F30E0F901E255FF4F849160
:1001D000F901E656FF4FD491F901EA57FF4FC49158
:1001E000CC23C9F0162F81110E948D00EC2FF0E076
:1001F000EE0FFF1FEE58FF4FA591B4918FB7F89403
:10020000111105C09C91ED2FE095E92302C0EC91FE
:10021000ED2BEC938FBFDF91CF911F910895CF937A
:10022000DF9390E0FC01E656FF4F2491FC01EA5772
:10023000FF4F8491882361F190E0880F991FFC01A2
:10024000E859FF4FC591D491FC01EE58FF4FA5919D
:10025000B491611109C09FB7F894888120958223D9
:100260008883EC912E230BC0623061F49FB7F89421
:100270003881822F809583238883EC912E2B2C93B9
:100280009FBF06C08FB7F894E8812E2B28838FBFBD
:10029000DF91CF9108953FB7F89480912F0190910D
:1002A0003001A0913101B091320126B5A89B05C063
:1002B0002F3F19F00196A11DB11D3FBFBA2FA92FE5
:1002C000982F8827820F911DA11DB11DBC01CD0162
:1002D00042E0660F771F881F991F4A95D1F708954E
:1002E0008F929F92AF92BF92CF92DF92EF92FF9246
:1002F0006B017C010E944B014B015C01C114D104D4
:10030000E104F104F1F00E944B01DC01CB018819FA
:100310009909AA09BB09883E9340A105B10570F36C
:1003200021E0C21AD108E108F10888EE880E83E0C6
:10033000981EA11CB11CC114D104E104F10419F7E9
:10034000DDCFFF90EF90DF90CF90BF90AF909F9068
:100350008F900895CF92DF92EF92FF920F931F93A9
:10036000CF93DF936C017A018B01C0E0D0E0CE1512
:10037000DF0589F0D8016D918D01D601ED91FC91D9
:100380000190F081E02DC6010995892B11F47E01C1
:1003900002C02196ECCFC701DF91CF911F910F9141
:1003A000FF90EF90DF90CF900895CF93DF93EC0113
:1003B00060E08E810E94DF0061E08E810E94DF009C
:1003C00060E08E810E94DF008BE891E00197F1F7F9
:1003D000DF91CF910895CF92DF92EF92FF920F932A
:1003E0001F93CF93DF937C016C0187E0C80ED11C73
:1003F000C0E0D0E0062F10E0B8010C2E02C07595C9
:1004000067950A94E2F76170F60181916F010E948D
:10041000DF002196C430D10579F7C701DF91CF9174
:100420001F910F91FF90EF90DF90CF900C94D5012A
:10043000CF92DF92EF92FF920F931F93CF93DF93B0
:10044000EC01F62E642F8C810E94DF008D818F3F9E
:1004500019F060E00E94DF008F850F2D10E084FF0F
:1004600025C06E0187E0C80ED11CE12CF12CB8012B
:100470000E2C02C0759567950A94E2F76170F6013B
:1004800081916F010E94DF00FFEFEF1AFF0A88E001
:10049000E816F10461F7CE01DF91CF911F910F9122
:1004A000FF90EF90DF90CF900C94D501B80184E0DD
:1004B000759567958A95E1F7CE010E94EB016F2D46
:1004C000CE01DF91CF911F910F91FF90EF90DF90C0
:1004D000CF900C94EB0141E00E94180281E090E083
:1004E000089540E00C941802EF92FF920F931F932F
:1004F000CF93DF93EC01623018F08F8588608F878F
:100500006B8B1C8A80E48D8B80E18E8B80E58F8BDA
:1005100061E08C810E940F018D818F3F19F061E0B5
:100520000E940F0161E08E810E940F017E0187E031
:10053000E80EF11C00E010E08F8584FD03C084E02C
:1005400090E002C088E090E0081719074CF461E0E1
:10055000F70181917F010E940F010F5F1F4FECCFC8
:100560008BE39DE00197F1F760E08C810E94DF0052
:1005700060E08E810E94DF008D818F3F19F060E086
:100580000E94DF006F8564FD1DC063E0CE010E9404
:10059000EB010BE416E4C8010197F1F763E0CE012B
:1005A0000E94EB01C8010197F1F763E0CE010E94C0
:1005B000EB0183E592E00197F1F762E0CE010E9442
:1005C000EB0116C06062CE010E9471028BE496E4DA
:1005D0000197F1F76F856062CE010E94710283E599
:1005E00092E00197F1F76F856062CE010E9471027F
:1005F0006F856062CE010E94710284E0888B6CE09E
:10060000CE010E94710261E0CE010E9471028BE373
:100610009FE10197F1F782E0898B66E0CE01DF91DF
:10062000CF911F910F91FF90EF900C94710208955C
:1006300080E090E008954F925F926F927F92BF9218
:10064000CF92DF92EF92FF920F931F93CF93DF939E
:1006500000D01F92CDB7DEB78C01F80183810E94D4
:10066000B600892BD1F733E0B32E412C512C320147
:100670004394BA94EFEFBE1609F43CC057E0E52E60
:10068000F12CCC24C394D12CCC0EDD1ECB0CD11C70
:1006900061E0F80182810E94DF00F80183810E94FD
:1006A000B600892B71F0F6012081D301C2010E2C16
:1006B00004C0880F991FAA1FBB1F0A94D2F7822B70
:1006C0000EC0D301C2010E2C04C0880F991FAA1FAF
:1006D000BB1F0A94D2F78095F6019081892380830D
:1006E00060E0F80182810E94DF00F1E0EF1AF1087A
:1006F00078F6BFCFE12CF12CF801848190E0E81668
:10070000F90674F461E0F80182810E94DF0060E084
:10071000F80182810E94DF00FFEFEF1AFF0AECCFA1
:100720006A81862F90E0A0E0B0E0BA2FA92F982F21
:1007300088272981822B2B812058BC01CD01822B57
:100740000F900F900F90DF91CF911F910F91FF901D
:10075000EF90DF90CF90BF907F906F905F904F9021
:100760000895CF92DF92EF92FF92CF93CAE0C12C0F
:10077000D12C760183E391E00E941B03C60ED71EA5
:10078000E81EF91EC150B1F7C701B6012AE030E0FA
:1007900040E050E00E94B706CA01B9010E94140768
:1007A0000E94DC06609338017093390180933A010E
:1007B00090933B01CF91FF90EF90DF90CF90089501
:1007C00008958F929F92AF92BF920F931F93CF93F2
:1007D000DF93CDB7DEB7A1970FB6F894DEBF0FBE9B
:1007E000CDBF19A2423008F44AE08E010F5D1F4FC1
:1007F000842E912CA12CB12CA50194010E94950668
:10080000E62FB901CA0101501109EA3014F4E05D84
:1008100001C0E95CD801EC93232B242B252B61F735
:100820000115110571F0F80101900020E9F73197E9
:10083000AF01401B510BB80180E491E00E94AA0176
:1008400002C080E090E0A1960FB6F894DEBF0FBE24
:10085000CDBFDF91CF911F910F91BF90AF909F902F
:100860008F9008950E94A5080C940D081F920F9276
:100870000FB60F9211242F933F938F939F93AF93B3
:10088000BF9380912B0190912C01A0912D01B091EB
:100890002E0130912A0123E0230F2D3720F40196F9
:1008A000A11DB11D05C026E8230F0296A11DB11D93
:1008B00020932A0180932B0190932C01A0932D016A
:1008C000B0932E0180912F0190913001A0913101C0
:1008D000B09132010196A11DB11D80932F0190931B
:1008E0003001A0933101B0933201BF91AF919F913C
:1008F0008F913F912F910F900FBE0F901F901895E1
:100900001F920F920FB60F9211242F933F934F9384
:100910005F936F937F938F939F93AF93BF93CF9387
:10092000DF93EF93FF932FB7F89480912B01909171
:100930002C01A0912D01B0912E012FBF20912401F7
:1009400030912501821B930BA109B1090497A105E0
:10095000B10508F46CC02FB7F89480912B019091E9
:100960002C01A0912D01B0912E012FBF9093250154
:10097000809324018FE00E94B600EC0180E10E9488
:10098000B600C817D90709F441C08091260190919B
:10099000270181309105A9F48FE00E94B600EC0197
:1009A00080E10E94B6008C179D073CF18FE00E9409
:1009B000B600EC0180E10E94B600C817D90734F5F3
:1009C0000CC0892B19F58FE00E94B600EC0180E184
:1009D0000E94B6008C179D0734F4809128019091F5
:1009E000290101970FC08FE00E94B600EC0180E161
:1009F0000E94B600C817D9074CF480912801909145
:100A00002901019690932901809328018FE00E948B
:100A1000B600EC0180E10E94B600C817D90739F48E
:100A20008FE00E94B6009093270180932601FF91EA
:100A3000EF91DF91CF91BF91AF919F918F917F9176
:100A40006F915F914F913F912F910F900FBE0F903B
:100A50001F9018951F920F920FB60F9211240F90AE
:100A60000FBE0F901F9018951F920F920FB60F9206
:100A700011240F900FBE0F901F901895789484B595
:100A8000826084BD84B5816084BD85B5826085BD8A
:100A900085B5816085BD80916E00816080936E0018
:100AA000109281008091810082608093810080910A
:100AB00081008160809381008091800081608093BB
:100AC00080008091B10084608093B1008091B0007B
:100AD00081608093B00080917A00846080937A0076
:100AE00080917A00826080937A0080917A008160A0
:100AF00080937A0080917A00806880937A001092C7
:100B0000C10060E086E00E940F0161E086E00E9483
:100B1000DF0080916D00806480936D00DA9A80918F
:100B2000680084608093680060E088E00E940F01A4
:100B300061E088E00E94DF0080916B00816080931B
:100B40006B00D89A8091680081608093680060E0B3
:100B500087E00E940F0161E087E00E94DF00809142
:100B60006D00806880936D00DA9A809168008460DF
:100B70008093680060E08FE00E940F0161E08FE0E9
:100B80000E94DF0080916C00826080936C00D99A93
:100B90008091680082608093680060E080E10E943C
:100BA0000F0161E080E10E94DF0080916C008460B1
:100BB00080936C00D99A809168008260809368006D
:100BC00061E08AE00E940F018FE00E94B6009093DE
:100BD00027018093260160E08AE00E94DF0062E046
:100BE00080E491E00E94740248E050E06AE171E024
:100BF00080E491E00E94AA0110923C0110923D0114
:100C000010923E0110923F0164E670E080E090E0B7
:100C10000E947001C5E083E391E00E941B03C15074
:100C2000D1F70E94B10364E670E080E090E00E949A
:100C300070010E94B103CBE3DFE100E010E061E06E
:100C400080E491E00E947102CE010197F1F7C0901B
:100C50002801D09029010D2C000CEE08FF08F7FEAA
:100C600014C0E0914001F09141010190F081E02D2C
:100C70006DE280E491E0099566277727CB016C1936
:100C80007D098E099F094AE003C04AE0C701B60109
:100C90000E94E10368EC70E080E090E00E94700147
:100CA0000115110561F20E940000C9CFCF93DF93B7
:100CB000C3E3D1E086E191E09983888382E18A836E
:100CC00081E18B8361E082E10E940F0160E08B8112
:100CD0000E940F0181E08C8360E08A810E94DF0026
:100CE000CE010E941B03E0E4F1E0138212828AE04D
:100CF00091E0918380838CE084838FEF85838BE008
:100D0000868385E0878384E0808783E0818782E033
:100D100082871386148615861686178661E0CF01B2
:100D2000DF91CF910C9474020895A1E21A2EAA1BB0
:100D3000BB1BFD010DC0AA1FBB1FEE1FFF1FA2178B
:100D4000B307E407F50720F0A21BB30BE40BF50B88
:100D5000661F771F881F991F1A9469F76095709511
:100D6000809590959B01AC01BD01CF010895052EA2
:100D700097FB1EF400940E94CE0657FD07D00E94F8
:100D8000950607FC03D04EF40C94CE065095409582
:100D9000309521953F4F4F4F5F4F08959095809527
:100DA000709561957F4F8F4F9F4F0895EE0FFF1FF6
:100DB0000590F491E02D09940E94E3066894B11126
:100DC0000C94720708950E94570788F09F5798F077
:100DD000B92F9927B751B0F0E1F0660F771F881F40
:100DE000991F1AF0BA95C9F714C0B13091F00E945A
:100DF0007107B1E008950C947107672F782F882749
:100E0000B85F39F0B93FCCF3869577956795B39580
:100E1000D9F73EF490958095709561957F4F8F4FEF
:100E20009F4F0895E89409C097FB3EF490958095F4
:100E3000709561957F4F8F4F9F4F9923A9F0F92FA0
:100E400096E9BB279395F695879577956795B7951E
:100E5000F111F8CFFAF4BB0F11F460FF1BC06F5F04
:100E60007F4F8F4F9F4F16C0882311F096E911C016
:100E7000772321F09EE8872F762F05C0662371F037
:100E800096E8862F70E060E02AF09A95660F771F4B
:100E9000881FDAF7880F9695879597F9089557FD7B
:100EA0009058440F551F59F05F3F71F04795880FD8
:100EB00097FB991F61F09F3F79F08795089512166F
:100EC00013061406551FF2CF4695F1DF08C016161B
:100ED00017061806991FF1CF8695710561050894CC
:100EE0000895E894BB2766277727CB0197F90895E3
:100EF000CF93DF938230910510F482E090E0E0918F
:100F00005A01F0915B0120E030E0C0E0D0E0309782
:100F100011F14081518148175907C0F0481759070E
:100F200061F482819381209719F09B838A832BC07F
:100F300090935B0180935A0126C02115310519F069
:100F40004217530718F49A01BE01DF01EF01028036
:100F5000F381E02DDCCF2115310509F1281B390B78
:100F60002430310590F412968D919C911397611560
:100F7000710521F0FB019383828304C090935B0190
:100F800080935A01FD01329644C0FD01E20FF31F28
:100F900081939193225031092D933C933AC0209133
:100FA000580130915901232B41F4209102013091D5
:100FB0000301309359012093580120910001309191
:100FC00001012115310541F42DB73EB740910401CF
:100FD00050910501241B350BE0915801F091590106
:100FE000E217F307A0F42E1B3F0B2817390778F000
:100FF000AC014E5F5F4F2417350748F04E0F5F1F5F
:1010000050935901409358018193919302C0E0E0BD
:10101000F0E0CF01DF91CF9108950F931F93CF930D
:10102000DF93009709F48CC0FC013297138212827F
:1010300000915A0110915B010115110581F4208185
:101040003181820F931F2091580130915901281747
:10105000390779F5F0935901E093580171C0D8012F
:1010600040E050E0AE17BF0750F412962D913C912E
:101070001397AD012115310509F1D901F3CF9D0178
:10108000DA013383228360817181860F971F821773
:10109000930769F4EC0128813981260F371F2E5FF1
:1010A0003F4F318320838A819B8193838283452BA9
:1010B00029F4F0935B01E0935A0142C01396FC932C
:1010C000EE931297ED01499159919E01240F351F1E
:1010D000E217F30771F480819181840F951F0296C6
:1010E00011969C938E938281938113969C938E93F9
:1010F0001297E0E0F0E0D80112968D919C91139741
:10110000009719F0F8018C01F6CF8D919C91980110
:101110002E5F3F4F820F931F20915801309159014C
:101120002817390769F4309729F410925B0110925F
:101130005A0102C013821282109359010093580180
:10114000DF91CF911F910F91089581E090E0F89485
:101150000C94AA0810E0C2E6D0E004C0FE010E9490
:0E116000D6062196C336D107C9F7F894FFCF03
:10116E0000005C012000000000006B02AA011803C1
:10117E00170300000000E003340457656C636F6DC5
:04118E0065210000D7
:00000001FF
